{
  "contractName": "Product",
  "abi": [
    {
      "inputs": [
        {
          "internalType": "uint256",
          "name": "",
          "type": "uint256"
        }
      ],
      "name": "products",
      "outputs": [
        {
          "internalType": "uint256",
          "name": "id",
          "type": "uint256"
        },
        {
          "internalType": "string",
          "name": "name",
          "type": "string"
        },
        {
          "internalType": "string",
          "name": "origin",
          "type": "string"
        },
        {
          "internalType": "uint256",
          "name": "quantity",
          "type": "uint256"
        },
        {
          "internalType": "uint256",
          "name": "price",
          "type": "uint256"
        },
        {
          "internalType": "address",
          "name": "owner",
          "type": "address"
        }
      ],
      "stateMutability": "view",
      "type": "function"
    },
    {
      "inputs": [
        {
          "internalType": "string",
          "name": "_name",
          "type": "string"
        },
        {
          "internalType": "string",
          "name": "_origin",
          "type": "string"
        },
        {
          "internalType": "uint256",
          "name": "_quantity",
          "type": "uint256"
        },
        {
          "internalType": "uint256",
          "name": "_price",
          "type": "uint256"
        }
      ],
      "name": "createProduct",
      "outputs": [],
      "stateMutability": "nonpayable",
      "type": "function"
    },
    {
      "inputs": [],
      "name": "getProductCount",
      "outputs": [
        {
          "internalType": "uint256",
          "name": "",
          "type": "uint256"
        }
      ],
      "stateMutability": "view",
      "type": "function"
    },
    {
      "inputs": [
        {
          "internalType": "uint256",
          "name": "_id",
          "type": "uint256"
        }
      ],
      "name": "getProduct",
      "outputs": [
        {
          "components": [
            {
              "internalType": "uint256",
              "name": "id",
              "type": "uint256"
            },
            {
              "internalType": "string",
              "name": "name",
              "type": "string"
            },
            {
              "internalType": "string",
              "name": "origin",
              "type": "string"
            },
            {
              "internalType": "uint256",
              "name": "quantity",
              "type": "uint256"
            },
            {
              "internalType": "uint256",
              "name": "price",
              "type": "uint256"
            },
            {
              "internalType": "address",
              "name": "owner",
              "type": "address"
            }
          ],
          "internalType": "struct Product.ProductData",
          "name": "",
          "type": "tuple"
        }
      ],
      "stateMutability": "view",
      "type": "function"
    }
  ],
  "bytecode": "0x608060405234801561001057600080fd5b506108ec806100206000396000f3fe608060405234801561001057600080fd5b506004361061004c5760003560e01c80634a348da9146100515780637acc0b201461006f57806390d16cba14610094578063b9db15b4146100a9575b600080fd5b6100596100c9565b60405161006691906107c4565b60405180910390f35b61008261007d3660046106bb565b6100cf565b604051610066969594939291906107cd565b6100a76100a236600461064a565b610232565b005b6100bc6100b73660046106bb565b610312565b604051610066919061074e565b60005490565b600081815481106100df57600080fd5b600091825260209091206006909102018054600182018054919350906101049061084f565b80601f01602080910402602001604051908101604052809291908181526020018280546101309061084f565b801561017d5780601f106101525761010080835404028352916020019161017d565b820191906000526020600020905b81548152906001019060200180831161016057829003601f168201915b5050505050908060020180546101929061084f565b80601f01602080910402602001604051908101604052809291908181526020018280546101be9061084f565b801561020b5780601f106101e05761010080835404028352916020019161020b565b820191906000526020600020905b8154815290600101906020018083116101ee57829003601f168201915b5050505060038301546004840154600590940154929390929091506001600160a01b031686565b60006040518060c0016040528060008054905060016102519190610820565b815260208082018890526040820187905260608201869052608082018590523360a0909201919091528254600181810185556000948552938290208351600690920201908155828201518051939491936102b3939285019291909101906104f1565b50604082015180516102cf9160028401916020909101906104f1565b50606082015160038201556080820151600482015560a090910151600590910180546001600160a01b0319166001600160a01b0390921691909117905550505050565b61031a610575565b60008211801561032c57506000548211155b6103515760405162461bcd60e51b81526004016103489061071e565b60405180910390fd5b600061035e600184610838565b8154811061037c57634e487b7160e01b600052603260045260246000fd5b90600052602060002090600602016040518060c0016040529081600082015481526020016001820180546103af9061084f565b80601f01602080910402602001604051908101604052809291908181526020018280546103db9061084f565b80156104285780601f106103fd57610100808354040283529160200191610428565b820191906000526020600020905b81548152906001019060200180831161040b57829003601f168201915b505050505081526020016002820180546104419061084f565b80601f016020809104026020016040519081016040528092919081815260200182805461046d9061084f565b80156104ba5780601f1061048f576101008083540402835291602001916104ba565b820191906000526020600020905b81548152906001019060200180831161049d57829003601f168201915b505050918352505060038201546020820152600482015460408201526005909101546001600160a01b031660609091015292915050565b8280546104fd9061084f565b90600052602060002090601f01602090048101928261051f5760008555610565565b82601f1061053857805160ff1916838001178555610565565b82800160010185558215610565579182015b8281111561056557825182559160200191906001019061054a565b506105719291506105b4565b5090565b6040518060c00160405280600081526020016060815260200160608152602001600081526020016000815260200160006001600160a01b031681525090565b5b8082111561057157600081556001016105b5565b600082601f8301126105d9578081fd5b813567ffffffffffffffff808211156105f4576105f46108a0565b604051601f8301601f191681016020018281118282101715610618576106186108a0565b60405282815284830160200186101561062f578384fd5b82602086016020830137918201602001929092529392505050565b6000806000806080858703121561065f578384fd5b843567ffffffffffffffff80821115610676578586fd5b610682888389016105c9565b95506020870135915080821115610697578485fd5b506106a4878288016105c9565b949794965050505060408301359260600135919050565b6000602082840312156106cc578081fd5b5035919050565b60008151808452815b818110156106f8576020818501810151868301820152016106dc565b818111156107095782602083870101525b50601f01601f19169290920160200192915050565b602080825260169082015275141c9bd91d58dd08191bd95cc81b9bdd08195e1a5cdd60521b604082015260600190565b60006020825282516020830152602083015160c0604084015261077460e08401826106d3565b90506040840151601f1984830301606085015261079182826106d3565b91505060608401516080840152608084015160a084015260018060a01b0360a08501511660c08401528091505092915050565b90815260200190565b600087825260c060208301526107e660c08301886106d3565b82810360408401526107f881886106d3565b6060840196909652505060808101929092526001600160a01b031660a0909101529392505050565b600082198211156108335761083361088a565b500190565b60008282101561084a5761084a61088a565b500390565b60028104600182168061086357607f821691505b6020821081141561088457634e487b7160e01b600052602260045260246000fd5b50919050565b634e487b7160e01b600052601160045260246000fd5b634e487b7160e01b600052604160045260246000fdfea2646970667358221220c4753c4f0af104a9dc6649408a4ae00948739fdf0311c4f4ba1c48edb125ad6e64736f6c63430008000033",
  "immutableReferences": {},
  "source": "pragma solidity ^0.8.0;\r\n\r\ncontract Product {\r\n    struct ProductData {\r\n        uint id;\r\n        string name;\r\n        string origin;\r\n        uint quantity;\r\n        uint price;\r\n        address owner;\r\n    }\r\n\r\n    ProductData[] public products;\r\n\r\n    function createProduct(string memory _name, string memory _origin, uint _quantity, uint _price) public {\r\n        products.push(ProductData({\r\n            id: products.length + 1,\r\n            name: _name,\r\n            origin: _origin,\r\n            quantity: _quantity,\r\n            price: _price,\r\n            owner: msg.sender\r\n        }));\r\n    }\r\n\r\n    function getProductCount() public view returns (uint) {\r\n        return products.length;\r\n    }\r\n\r\n    function getProduct(uint _id) public view returns (ProductData memory) {\r\n        require(_id > 0 && _id <= products.length, \"Product does not exist\");\r\n        return products[_id - 1];\r\n    }\r\n}\r\n",
  "sourcePath": "c:\\Users\\clever\\Documents\\Blockchain NIT\\X preparation Materials\\projects\\supply-chain\\contracts\\Product.sol",
  "compiler": {
    "name": "solc",
    "version": "0.8.0+commit.c7dfd78e.Emscripten.clang"
  },
  "schemaVersion": "3.4.13",
  "updatedAt": "2023-03-13T05:09:07.059Z",
  "devdoc": {
    "kind": "dev",
    "methods": {},
    "version": 1
  },
  "userdoc": {
    "kind": "user",
    "methods": {},
    "version": 1
  }
}