{
  "contractName": "SupplyChain",
  "abi": [
    {
      "inputs": [
        {
          "internalType": "contract ERC20",
          "name": "_token",
          "type": "address"
        }
      ],
      "stateMutability": "nonpayable",
      "type": "constructor"
    },
    {
      "inputs": [
        {
          "internalType": "uint256",
          "name": "",
          "type": "uint256"
        }
      ],
      "name": "products",
      "outputs": [
        {
          "internalType": "uint256",
          "name": "id",
          "type": "uint256"
        },
        {
          "internalType": "string",
          "name": "name",
          "type": "string"
        },
        {
          "internalType": "string",
          "name": "origin",
          "type": "string"
        },
        {
          "internalType": "uint256",
          "name": "quantity",
          "type": "uint256"
        },
        {
          "internalType": "uint256",
          "name": "price",
          "type": "uint256"
        },
        {
          "internalType": "address",
          "name": "owner",
          "type": "address"
        },
        {
          "internalType": "bool",
          "name": "isAvailable",
          "type": "bool"
        }
      ],
      "stateMutability": "view",
      "type": "function"
    },
    {
      "inputs": [],
      "name": "token",
      "outputs": [
        {
          "internalType": "contract ERC20",
          "name": "",
          "type": "address"
        }
      ],
      "stateMutability": "view",
      "type": "function"
    },
    {
      "inputs": [
        {
          "internalType": "string",
          "name": "_name",
          "type": "string"
        },
        {
          "internalType": "string",
          "name": "_origin",
          "type": "string"
        },
        {
          "internalType": "uint256",
          "name": "_quantity",
          "type": "uint256"
        },
        {
          "internalType": "uint256",
          "name": "_price",
          "type": "uint256"
        }
      ],
      "name": "createProduct",
      "outputs": [],
      "stateMutability": "nonpayable",
      "type": "function"
    },
    {
      "inputs": [
        {
          "internalType": "uint256",
          "name": "_id",
          "type": "uint256"
        }
      ],
      "name": "buyProduct",
      "outputs": [],
      "stateMutability": "nonpayable",
      "type": "function"
    },
    {
      "inputs": [],
      "name": "getProductCount",
      "outputs": [
        {
          "internalType": "uint256",
          "name": "",
          "type": "uint256"
        }
      ],
      "stateMutability": "view",
      "type": "function"
    },
    {
      "inputs": [
        {
          "internalType": "uint256",
          "name": "_id",
          "type": "uint256"
        }
      ],
      "name": "getProduct",
      "outputs": [
        {
          "components": [
            {
              "internalType": "uint256",
              "name": "id",
              "type": "uint256"
            },
            {
              "internalType": "string",
              "name": "name",
              "type": "string"
            },
            {
              "internalType": "string",
              "name": "origin",
              "type": "string"
            },
            {
              "internalType": "uint256",
              "name": "quantity",
              "type": "uint256"
            },
            {
              "internalType": "uint256",
              "name": "price",
              "type": "uint256"
            },
            {
              "internalType": "address",
              "name": "owner",
              "type": "address"
            },
            {
              "internalType": "bool",
              "name": "isAvailable",
              "type": "bool"
            }
          ],
          "internalType": "struct SupplyChain.Product",
          "name": "",
          "type": "tuple"
        }
      ],
      "stateMutability": "view",
      "type": "function"
    },
    {
      "inputs": [
        {
          "internalType": "uint256",
          "name": "_id",
          "type": "uint256"
        }
      ],
      "name": "getProductStatus",
      "outputs": [
        {
          "internalType": "bool",
          "name": "",
          "type": "bool"
        }
      ],
      "stateMutability": "view",
      "type": "function"
    }
  ],
  "bytecode": "0x608060405234801561001057600080fd5b50604051610ddd380380610ddd83398101604081905261002f91610054565b600080546001600160a01b0319166001600160a01b0392909216919091179055610082565b600060208284031215610065578081fd5b81516001600160a01b038116811461007b578182fd5b9392505050565b610d4c806100916000396000f3fe608060405234801561001057600080fd5b506004361061007d5760003560e01c80638642269e1161005b5780638642269e146100e657806390d16cba146100fb578063b9db15b41461010e578063fc0c546a1461012e5761007d565b806313f6b1bb146100825780634a348da9146100ab5780637acc0b20146100c0575b600080fd5b610095610090366004610a25565b610143565b6040516100a29190610ad8565b60405180910390f35b6100b36101c9565b6040516100a29190610bfb565b6100d36100ce366004610a25565b6101cf565b6040516100a29796959493929190610c04565b6100f96100f4366004610a25565b61033e565b005b6100f96101093660046109b4565b610536565b61012161011c366004610a25565b610635565b6040516100a29190610b78565b61013661081c565b6040516100a29190610aa0565b6000808211801561015657506001548211155b61017b5760405162461bcd60e51b815260040161017290610ae3565b60405180910390fd5b60016101878184610c98565b815481106101a557634e487b7160e01b600052603260045260246000fd5b6000918252602090912060069091020160050154600160a01b900460ff1692915050565b60015490565b600181815481106101df57600080fd5b6000918252602090912060069091020180546001820180549193509061020490610caf565b80601f016020809104026020016040519081016040528092919081815260200182805461023090610caf565b801561027d5780601f106102525761010080835404028352916020019161027d565b820191906000526020600020905b81548152906001019060200180831161026057829003601f168201915b50505050509080600201805461029290610caf565b80601f01602080910402602001604051908101604052809291908181526020018280546102be90610caf565b801561030b5780601f106102e05761010080835404028352916020019161030b565b820191906000526020600020905b8154815290600101906020018083116102ee57829003601f168201915b5050505060038301546004840154600590940154929390929091506001600160a01b03811690600160a01b900460ff1687565b60008111801561035057506001548111155b61036c5760405162461bcd60e51b815260040161017290610ae3565b6000600161037a8184610c98565b8154811061039857634e487b7160e01b600052603260045260246000fd5b906000526020600020906006020190508060050160149054906101000a900460ff16151560011515146103dd5760405162461bcd60e51b815260040161017290610b13565b6000816003015482600401546103f39190610c79565b6000546040516370a0823160e01b815291925082916001600160a01b03909116906370a0823190610428903390600401610aa0565b60206040518083038186803b15801561044057600080fd5b505afa158015610454573d6000803e3d6000fd5b505050506040513d601f19601f820116820180604052508101906104789190610a3d565b10156104965760405162461bcd60e51b815260040161017290610b4a565b60005460058301546040516323b872dd60e01b81526001600160a01b03928316926323b872dd926104d1923392909116908690600401610ab4565b602060405180830381600087803b1580156104eb57600080fd5b505af11580156104ff573d6000803e3d6000fd5b505050506040513d601f19601f82011682018060405250810190610523919061098d565b5050600501805460ff60a01b1916905550565b60016040518060e0016040528060018054905060016105559190610c61565b815260208082018890526040820187905260608201869052608082018590523360a0830152600160c09092018290528354808301855560009485529381902083516006909502019384558281015180519394936105b993850192919091019061082b565b50604082015180516105d591600284019160209091019061082b565b50606082015160038201556080820151600482015560a08201516005909101805460c0909301511515600160a01b0260ff60a01b196001600160a01b039093166001600160a01b0319909416939093179190911691909117905550505050565b61063d6108af565b60008211801561064f57506001548211155b61066b5760405162461bcd60e51b815260040161017290610ae3565b60016106778184610c98565b8154811061069557634e487b7160e01b600052603260045260246000fd5b90600052602060002090600602016040518060e0016040529081600082015481526020016001820180546106c890610caf565b80601f01602080910402602001604051908101604052809291908181526020018280546106f490610caf565b80156107415780601f1061071657610100808354040283529160200191610741565b820191906000526020600020905b81548152906001019060200180831161072457829003601f168201915b5050505050815260200160028201805461075a90610caf565b80601f016020809104026020016040519081016040528092919081815260200182805461078690610caf565b80156107d35780601f106107a8576101008083540402835291602001916107d3565b820191906000526020600020905b8154815290600101906020018083116107b657829003601f168201915b505050918352505060038201546020820152600482015460408201526005909101546001600160a01b0381166060830152600160a01b900460ff16151560809091015292915050565b6000546001600160a01b031681565b82805461083790610caf565b90600052602060002090601f016020900481019282610859576000855561089f565b82601f1061087257805160ff191683800117855561089f565b8280016001018555821561089f579182015b8281111561089f578251825591602001919060010190610884565b506108ab9291506108f7565b5090565b6040518060e00160405280600081526020016060815260200160608152602001600081526020016000815260200160006001600160a01b031681526020016000151581525090565b5b808211156108ab57600081556001016108f8565b600082601f83011261091c578081fd5b813567ffffffffffffffff8082111561093757610937610d00565b604051601f8301601f19168101602001828111828210171561095b5761095b610d00565b604052828152848301602001861015610972578384fd5b82602086016020830137918201602001929092529392505050565b60006020828403121561099e578081fd5b815180151581146109ad578182fd5b9392505050565b600080600080608085870312156109c9578283fd5b843567ffffffffffffffff808211156109e0578485fd5b6109ec8883890161090c565b95506020870135915080821115610a01578485fd5b50610a0e8782880161090c565b949794965050505060408301359260600135919050565b600060208284031215610a36578081fd5b5035919050565b600060208284031215610a4e578081fd5b5051919050565b60008151808452815b81811015610a7a57602081850181015186830182015201610a5e565b81811115610a8b5782602083870101525b50601f01601f19169290920160200192915050565b6001600160a01b0391909116815260200190565b6001600160a01b039384168152919092166020820152604081019190915260600190565b901515815260200190565b602080825260169082015275141c9bd91d58dd08191bd95cc81b9bdd08195e1a5cdd60521b604082015260600190565b60208082526018908201527f50726f64756374206973206e6f7420617661696c61626c650000000000000000604082015260600190565b602080825260149082015273496e73756666696369656e742062616c616e636560601b604082015260600190565b60006020825282516020830152602083015160e06040840152610b9f610100840182610a55565b90506040840151601f19848303016060850152610bbc8282610a55565b91505060608401516080840152608084015160a084015260018060a01b0360a08501511660c084015260c0840151151560e08401528091505092915050565b90815260200190565b600088825260e06020830152610c1d60e0830189610a55565b8281036040840152610c2f8189610a55565b6060840197909752505060808101939093526001600160a01b039190911660a0830152151560c0909101529392505050565b60008219821115610c7457610c74610cea565b500190565b6000816000190483118215151615610c9357610c93610cea565b500290565b600082821015610caa57610caa610cea565b500390565b600281046001821680610cc357607f821691505b60208210811415610ce457634e487b7160e01b600052602260045260246000fd5b50919050565b634e487b7160e01b600052601160045260246000fd5b634e487b7160e01b600052604160045260246000fdfea26469706673582212205b568b05389caf22b1702a5ad1a66748954737c501e6a2cad546f0210c00121264736f6c63430008000033",
  "immutableReferences": {},
  "source": "pragma solidity ^0.8.0;\r\n\r\nimport \"@openzeppelin/contracts/token/ERC20/ERC20.sol\";\r\n\r\ncontract SupplyChain {\r\n    ERC20 public token;\r\n\r\n    struct Product {\r\n        uint id;\r\n        string name;\r\n        string origin;\r\n        uint quantity;\r\n        uint price;\r\n        address owner;\r\n        bool isAvailable;\r\n    }\r\n\r\n    Product[] public products;\r\n\r\n    constructor(ERC20 _token) {\r\n        token = _token;\r\n    }\r\n\r\n    function createProduct(string memory _name, string memory _origin, uint _quantity, uint _price) public {\r\n        products.push(Product({\r\n            id: products.length + 1,\r\n            name: _name,\r\n            origin: _origin,\r\n            quantity: _quantity,\r\n            price: _price,\r\n            owner: msg.sender,\r\n            isAvailable: true\r\n        }));\r\n    }\r\n\r\n    function buyProduct(uint _id) public {\r\n        require(_id > 0 && _id <= products.length, \"Product does not exist\");\r\n        Product storage product = products[_id - 1];\r\n        require(product.isAvailable == true, \"Product is not available\");\r\n\r\n        uint totalPrice = product.price * product.quantity;\r\n        require(token.balanceOf(msg.sender) >= totalPrice, \"Insufficient balance\");\r\n\r\n        token.transferFrom(msg.sender, product.owner, totalPrice);\r\n        product.isAvailable = false;\r\n    }\r\n\r\n\r\n// function buyProduct(uint256 productId) public payable {\r\n//     require(productId > 0 && productId <= products.length, \"Invalid product ID\");\r\n//     Product storage product = products[productId - 1];\r\n//     require(msg.value >= product.price, \"Insufficient funds\");\r\n\r\n//     product.buyer = msg.sender;\r\n//     product.seller.transfer(msg.value);\r\n\r\n//     emit ProductPurchased(productId, product.name, product.origin, product.quantity, product.price, msg.sender);\r\n// }\r\n\r\n\r\n    function getProductCount() public view returns (uint) {\r\n        return products.length;\r\n    }\r\n\r\n    function getProduct(uint _id) public view returns (Product memory) {\r\n        require(_id > 0 && _id <= products.length, \"Product does not exist\");\r\n        return products[_id - 1];\r\n    }\r\n\r\n    function getProductStatus(uint _id) public view returns (bool) {\r\n        require(_id > 0 && _id <= products.length, \"Product does not exist\");\r\n        return products[_id - 1].isAvailable;\r\n    }\r\n}\r\n",
  "sourcePath": "c:\\Users\\clever\\Documents\\Blockchain NIT\\X preparation Materials\\projects\\supply-chain\\contracts\\SupplyChain.sol",
  "compiler": {
    "name": "solc",
    "version": "0.8.0+commit.c7dfd78e.Emscripten.clang"
  },
  "schemaVersion": "3.4.13",
  "updatedAt": "2023-03-13T05:09:07.078Z",
  "devdoc": {
    "kind": "dev",
    "methods": {},
    "version": 1
  },
  "userdoc": {
    "kind": "user",
    "methods": {},
    "version": 1
  }
}